{
  "contractName": "TokenABC",
  "abi": [
    {
      "inputs": [
        {
          "internalType": "uint256",
          "name": "initialSupply",
          "type": "uint256"
        },
        {
          "internalType": "uint256",
          "name": "_tokenPrice",
          "type": "uint256"
        }
      ],
      "stateMutability": "nonpayable",
      "type": "constructor"
    },
    {
      "anonymous": false,
      "inputs": [
        {
          "indexed": true,
          "internalType": "address",
          "name": "owner",
          "type": "address"
        },
        {
          "indexed": true,
          "internalType": "address",
          "name": "spender",
          "type": "address"
        },
        {
          "indexed": false,
          "internalType": "uint256",
          "name": "value",
          "type": "uint256"
        }
      ],
      "name": "Approval",
      "type": "event"
    },
    {
      "anonymous": false,
      "inputs": [
        {
          "indexed": true,
          "internalType": "address",
          "name": "from",
          "type": "address"
        },
        {
          "indexed": true,
          "internalType": "address",
          "name": "to",
          "type": "address"
        },
        {
          "indexed": false,
          "internalType": "uint256",
          "name": "value",
          "type": "uint256"
        }
      ],
      "name": "Transfer",
      "type": "event"
    },
    {
      "inputs": [
        {
          "internalType": "address",
          "name": "owner",
          "type": "address"
        },
        {
          "internalType": "address",
          "name": "spender",
          "type": "address"
        }
      ],
      "name": "allowance",
      "outputs": [
        {
          "internalType": "uint256",
          "name": "",
          "type": "uint256"
        }
      ],
      "stateMutability": "view",
      "type": "function",
      "constant": true
    },
    {
      "inputs": [
        {
          "internalType": "address",
          "name": "spender",
          "type": "address"
        },
        {
          "internalType": "uint256",
          "name": "amount",
          "type": "uint256"
        }
      ],
      "name": "approve",
      "outputs": [
        {
          "internalType": "bool",
          "name": "",
          "type": "bool"
        }
      ],
      "stateMutability": "nonpayable",
      "type": "function"
    },
    {
      "inputs": [
        {
          "internalType": "address",
          "name": "account",
          "type": "address"
        }
      ],
      "name": "balanceOf",
      "outputs": [
        {
          "internalType": "uint256",
          "name": "",
          "type": "uint256"
        }
      ],
      "stateMutability": "view",
      "type": "function",
      "constant": true
    },
    {
      "inputs": [],
      "name": "decimals",
      "outputs": [
        {
          "internalType": "uint8",
          "name": "",
          "type": "uint8"
        }
      ],
      "stateMutability": "view",
      "type": "function",
      "constant": true
    },
    {
      "inputs": [
        {
          "internalType": "address",
          "name": "spender",
          "type": "address"
        },
        {
          "internalType": "uint256",
          "name": "subtractedValue",
          "type": "uint256"
        }
      ],
      "name": "decreaseAllowance",
      "outputs": [
        {
          "internalType": "bool",
          "name": "",
          "type": "bool"
        }
      ],
      "stateMutability": "nonpayable",
      "type": "function"
    },
    {
      "inputs": [
        {
          "internalType": "address",
          "name": "spender",
          "type": "address"
        },
        {
          "internalType": "uint256",
          "name": "addedValue",
          "type": "uint256"
        }
      ],
      "name": "increaseAllowance",
      "outputs": [
        {
          "internalType": "bool",
          "name": "",
          "type": "bool"
        }
      ],
      "stateMutability": "nonpayable",
      "type": "function"
    },
    {
      "inputs": [],
      "name": "name",
      "outputs": [
        {
          "internalType": "string",
          "name": "",
          "type": "string"
        }
      ],
      "stateMutability": "view",
      "type": "function",
      "constant": true
    },
    {
      "inputs": [],
      "name": "symbol",
      "outputs": [
        {
          "internalType": "string",
          "name": "",
          "type": "string"
        }
      ],
      "stateMutability": "view",
      "type": "function",
      "constant": true
    },
    {
      "inputs": [],
      "name": "tokenPrice",
      "outputs": [
        {
          "internalType": "uint256",
          "name": "",
          "type": "uint256"
        }
      ],
      "stateMutability": "view",
      "type": "function",
      "constant": true
    },
    {
      "inputs": [],
      "name": "tokensSold",
      "outputs": [
        {
          "internalType": "uint256",
          "name": "",
          "type": "uint256"
        }
      ],
      "stateMutability": "view",
      "type": "function",
      "constant": true
    },
    {
      "inputs": [],
      "name": "totalSupply",
      "outputs": [
        {
          "internalType": "uint256",
          "name": "",
          "type": "uint256"
        }
      ],
      "stateMutability": "view",
      "type": "function",
      "constant": true
    },
    {
      "inputs": [
        {
          "internalType": "address",
          "name": "recipient",
          "type": "address"
        },
        {
          "internalType": "uint256",
          "name": "amount",
          "type": "uint256"
        }
      ],
      "name": "transfer",
      "outputs": [
        {
          "internalType": "bool",
          "name": "",
          "type": "bool"
        }
      ],
      "stateMutability": "nonpayable",
      "type": "function"
    },
    {
      "inputs": [
        {
          "internalType": "address",
          "name": "sender",
          "type": "address"
        },
        {
          "internalType": "address",
          "name": "recipient",
          "type": "address"
        },
        {
          "internalType": "uint256",
          "name": "amount",
          "type": "uint256"
        }
      ],
      "name": "transferFrom",
      "outputs": [
        {
          "internalType": "bool",
          "name": "",
          "type": "bool"
        }
      ],
      "stateMutability": "nonpayable",
      "type": "function"
    },
    {
      "inputs": [
        {
          "internalType": "uint256",
          "name": "numberOfTokens",
          "type": "uint256"
        }
      ],
      "name": "buyTokens",
      "outputs": [],
      "stateMutability": "payable",
      "type": "function",
      "payable": true
    }
  ],
  "bytecode": "0x60806040523480156200001157600080fd5b506040516200200838038062002008833981810160405281019062000037919062000375565b6040518060400160405280600881526020017f546f6b656e4142430000000000000000000000000000000000000000000000008152506040518060400160405280600381526020017f41424300000000000000000000000000000000000000000000000000000000008152508160039080519060200190620000bb929190620002ae565b508060049080519060200190620000d4929190620002ae565b505050806005819055506200011a30620000f36200012260201b60201c565b600a62000101919062000511565b846200010e91906200064e565b6200012b60201b60201c565b505062000781565b60006012905090565b600073ffffffffffffffffffffffffffffffffffffffff168273ffffffffffffffffffffffffffffffffffffffff1614156200019e576040517f08c379a0000000000000000000000000000000000000000000000000000000008152600401620001959062000409565b60405180910390fd5b620001b260008383620002a460201b60201c565b8060026000828254620001c6919062000459565b92505081905550806000808473ffffffffffffffffffffffffffffffffffffffff1673ffffffffffffffffffffffffffffffffffffffff16815260200190815260200160002060008282546200021d919062000459565b925050819055508173ffffffffffffffffffffffffffffffffffffffff16600073ffffffffffffffffffffffffffffffffffffffff167fddf252ad1be2c89b69c2b068fc378daa952ba7f163c4a11628f55a4df523b3ef836040516200028491906200042b565b60405180910390a3620002a060008383620002a960201b60201c565b5050565b505050565b505050565b828054620002bc90620006c6565b90600052602060002090601f016020900481019282620002e057600085556200032c565b82601f10620002fb57805160ff19168380011785556200032c565b828001600101855582156200032c579182015b828111156200032b5782518255916020019190600101906200030e565b5b5090506200033b91906200033f565b5090565b5b808211156200035a57600081600090555060010162000340565b5090565b6000815190506200036f8162000767565b92915050565b600080604083850312156200038957600080fd5b600062000399858286016200035e565b9250506020620003ac858286016200035e565b9150509250929050565b6000620003c5601f8362000448565b91507f45524332303a206d696e7420746f20746865207a65726f2061646472657373006000830152602082019050919050565b6200040381620006af565b82525050565b600060208201905081810360008301526200042481620003b6565b9050919050565b6000602082019050620004426000830184620003f8565b92915050565b600082825260208201905092915050565b60006200046682620006af565b91506200047383620006af565b9250827fffffffffffffffffffffffffffffffffffffffffffffffffffffffffffffffff03821115620004ab57620004aa620006fc565b5b828201905092915050565b6000808291508390505b60018511156200050857808604811115620004e057620004df620006fc565b5b6001851615620004f05780820291505b808102905062000500856200075a565b9450620004c0565b94509492505050565b60006200051e82620006af565b91506200052b83620006b9565b92506200055a7fffffffffffffffffffffffffffffffffffffffffffffffffffffffffffffffff848462000562565b905092915050565b60008262000574576001905062000647565b8162000584576000905062000647565b81600181146200059d5760028114620005a857620005de565b600191505062000647565b60ff841115620005bd57620005bc620006fc565b5b8360020a915084821115620005d757620005d6620006fc565b5b5062000647565b5060208310610133831016604e8410600b8410161715620006185782820a905083811115620006125762000611620006fc565b5b62000647565b620006278484846001620004b6565b92509050818404811115620006415762000640620006fc565b5b81810290505b9392505050565b60006200065b82620006af565b91506200066883620006af565b9250817fffffffffffffffffffffffffffffffffffffffffffffffffffffffffffffffff0483118215151615620006a457620006a3620006fc565b5b828202905092915050565b6000819050919050565b600060ff82169050919050565b60006002820490506001821680620006df57607f821691505b60208210811415620006f657620006f56200072b565b5b50919050565b7f4e487b7100000000000000000000000000000000000000000000000000000000600052601160045260246000fd5b7f4e487b7100000000000000000000000000000000000000000000000000000000600052602260045260246000fd5b60008160011c9050919050565b6200077281620006af565b81146200077e57600080fd5b50565b61187780620007916000396000f3fe6080604052600436106100dd5760003560e01c8063518ab2a81161007f57806395d89b411161005957806395d89b41146102c9578063a457c2d7146102f4578063a9059cbb14610331578063dd62ed3e1461036e576100dd565b8063518ab2a81461023657806370a08231146102615780637ff9b5961461029e576100dd565b806323b872dd116100bb57806323b872dd14610175578063313ce567146101b25780633610724e146101dd57806339509351146101f9576100dd565b806306fdde03146100e2578063095ea7b31461010d57806318160ddd1461014a575b600080fd5b3480156100ee57600080fd5b506100f76103ab565b604051610104919061144f565b60405180910390f35b34801561011957600080fd5b50610134600480360381019061012f9190610fba565b61043d565b6040516101419190611434565b60405180910390f35b34801561015657600080fd5b5061015f61045b565b60405161016c9190611571565b60405180910390f35b34801561018157600080fd5b5061019c60048036038101906101979190610f6b565b610465565b6040516101a99190611434565b60405180910390f35b3480156101be57600080fd5b506101c761055d565b6040516101d4919061158c565b60405180910390f35b6101f760048036038101906101f2919061101f565b610566565b005b34801561020557600080fd5b50610220600480360381019061021b9190610fba565b6106c5565b60405161022d9190611434565b60405180910390f35b34801561024257600080fd5b5061024b610771565b6040516102589190611571565b60405180910390f35b34801561026d57600080fd5b5061028860048036038101906102839190610f06565b610777565b6040516102959190611571565b60405180910390f35b3480156102aa57600080fd5b506102b36107bf565b6040516102c09190611571565b60405180910390f35b3480156102d557600080fd5b506102de6107c5565b6040516102eb919061144f565b60405180910390f35b34801561030057600080fd5b5061031b60048036038101906103169190610fba565b610857565b6040516103289190611434565b60405180910390f35b34801561033d57600080fd5b5061035860048036038101906103539190610fba565b610942565b6040516103659190611434565b60405180910390f35b34801561037a57600080fd5b5061039560048036038101906103909190610f2f565b610960565b6040516103a29190611571565b60405180910390f35b6060600380546103ba9061172c565b80601f01602080910402602001604051908101604052809291908181526020018280546103e69061172c565b80156104335780601f1061040857610100808354040283529160200191610433565b820191906000526020600020905b81548152906001019060200180831161041657829003601f168201915b5050505050905090565b600061045161044a6109e7565b84846109ef565b6001905092915050565b6000600254905090565b6000610472848484610bba565b6000600160008673ffffffffffffffffffffffffffffffffffffffff1673ffffffffffffffffffffffffffffffffffffffff16815260200190815260200160002060006104bd6109e7565b73ffffffffffffffffffffffffffffffffffffffff1673ffffffffffffffffffffffffffffffffffffffff1681526020019081526020016000205490508281101561053d576040517f08c379a0000000000000000000000000000000000000000000000000000000008152600401610534906114f1565b60405180910390fd5b610551856105496109e7565b8584036109ef565b60019150509392505050565b60006012905090565b61057281600554610e3b565b34101561057e57600080fd5b803073ffffffffffffffffffffffffffffffffffffffff166370a08231306040518263ffffffff1660e01b81526004016105b891906113f0565b60206040518083038186803b1580156105d057600080fd5b505afa1580156105e4573d6000803e3d6000fd5b505050506040513d601f19601f820116820180604052508101906106089190611048565b101561061357600080fd5b3073ffffffffffffffffffffffffffffffffffffffff1663a9059cbb33836040518363ffffffff1660e01b815260040161064e92919061140b565b602060405180830381600087803b15801561066857600080fd5b505af115801561067c573d6000803e3d6000fd5b505050506040513d601f19601f820116820180604052508101906106a09190610ff6565b6106a957600080fd5b80600660008282546106bb91906115c3565b9250508190555050565b60006107676106d26109e7565b8484600160006106e06109e7565b73ffffffffffffffffffffffffffffffffffffffff1673ffffffffffffffffffffffffffffffffffffffff16815260200190815260200160002060008873ffffffffffffffffffffffffffffffffffffffff1673ffffffffffffffffffffffffffffffffffffffff1681526020019081526020016000205461076291906115c3565b6109ef565b6001905092915050565b60065481565b60008060008373ffffffffffffffffffffffffffffffffffffffff1673ffffffffffffffffffffffffffffffffffffffff168152602001908152602001600020549050919050565b60055481565b6060600480546107d49061172c565b80601f01602080910402602001604051908101604052809291908181526020018280546108009061172c565b801561084d5780601f106108225761010080835404028352916020019161084d565b820191906000526020600020905b81548152906001019060200180831161083057829003601f168201915b5050505050905090565b600080600160006108666109e7565b73ffffffffffffffffffffffffffffffffffffffff1673ffffffffffffffffffffffffffffffffffffffff16815260200190815260200160002060008573ffffffffffffffffffffffffffffffffffffffff1673ffffffffffffffffffffffffffffffffffffffff16815260200190815260200160002054905082811015610923576040517f08c379a000000000000000000000000000000000000000000000000000000000815260040161091a90611551565b60405180910390fd5b61093761092e6109e7565b858584036109ef565b600191505092915050565b600061095661094f6109e7565b8484610bba565b6001905092915050565b6000600160008473ffffffffffffffffffffffffffffffffffffffff1673ffffffffffffffffffffffffffffffffffffffff16815260200190815260200160002060008373ffffffffffffffffffffffffffffffffffffffff1673ffffffffffffffffffffffffffffffffffffffff16815260200190815260200160002054905092915050565b600033905090565b600073ffffffffffffffffffffffffffffffffffffffff168373ffffffffffffffffffffffffffffffffffffffff161415610a5f576040517f08c379a0000000000000000000000000000000000000000000000000000000008152600401610a5690611531565b60405180910390fd5b600073ffffffffffffffffffffffffffffffffffffffff168273ffffffffffffffffffffffffffffffffffffffff161415610acf576040517f08c379a0000000000000000000000000000000000000000000000000000000008152600401610ac690611491565b60405180910390fd5b80600160008573ffffffffffffffffffffffffffffffffffffffff1673ffffffffffffffffffffffffffffffffffffffff16815260200190815260200160002060008473ffffffffffffffffffffffffffffffffffffffff1673ffffffffffffffffffffffffffffffffffffffff168152602001908152602001600020819055508173ffffffffffffffffffffffffffffffffffffffff168373ffffffffffffffffffffffffffffffffffffffff167f8c5be1e5ebec7d5bd14f71427d1e84f3dd0314c0f7b2291e5b200ac8c7c3b92583604051610bad9190611571565b60405180910390a3505050565b600073ffffffffffffffffffffffffffffffffffffffff168373ffffffffffffffffffffffffffffffffffffffff161415610c2a576040517f08c379a0000000000000000000000000000000000000000000000000000000008152600401610c2190611511565b60405180910390fd5b600073ffffffffffffffffffffffffffffffffffffffff168273ffffffffffffffffffffffffffffffffffffffff161415610c9a576040517f08c379a0000000000000000000000000000000000000000000000000000000008152600401610c9190611471565b60405180910390fd5b610ca5838383610ea8565b60008060008573ffffffffffffffffffffffffffffffffffffffff1673ffffffffffffffffffffffffffffffffffffffff16815260200190815260200160002054905081811015610d2b576040517f08c379a0000000000000000000000000000000000000000000000000000000008152600401610d22906114d1565b60405180910390fd5b8181036000808673ffffffffffffffffffffffffffffffffffffffff1673ffffffffffffffffffffffffffffffffffffffff16815260200190815260200160002081905550816000808573ffffffffffffffffffffffffffffffffffffffff1673ffffffffffffffffffffffffffffffffffffffff1681526020019081526020016000206000828254610dbe91906115c3565b925050819055508273ffffffffffffffffffffffffffffffffffffffff168473ffffffffffffffffffffffffffffffffffffffff167fddf252ad1be2c89b69c2b068fc378daa952ba7f163c4a11628f55a4df523b3ef84604051610e229190611571565b60405180910390a3610e35848484610ead565b50505050565b600080821480610e63575082828385610e54919061164a565b925082610e619190611619565b145b610ea2576040517f08c379a0000000000000000000000000000000000000000000000000000000008152600401610e99906114b1565b60405180910390fd5b92915050565b505050565b505050565b600081359050610ec1816117fc565b92915050565b600081519050610ed681611813565b92915050565b600081359050610eeb8161182a565b92915050565b600081519050610f008161182a565b92915050565b600060208284031215610f1857600080fd5b6000610f2684828501610eb2565b91505092915050565b60008060408385031215610f4257600080fd5b6000610f5085828601610eb2565b9250506020610f6185828601610eb2565b9150509250929050565b600080600060608486031215610f8057600080fd5b6000610f8e86828701610eb2565b9350506020610f9f86828701610eb2565b9250506040610fb086828701610edc565b9150509250925092565b60008060408385031215610fcd57600080fd5b6000610fdb85828601610eb2565b9250506020610fec85828601610edc565b9150509250929050565b60006020828403121561100857600080fd5b600061101684828501610ec7565b91505092915050565b60006020828403121561103157600080fd5b600061103f84828501610edc565b91505092915050565b60006020828403121561105a57600080fd5b600061106884828501610ef1565b91505092915050565b61107a816116a4565b82525050565b611089816116b6565b82525050565b600061109a826115a7565b6110a481856115b2565b93506110b48185602086016116f9565b6110bd816117eb565b840191505092915050565b60006110d56023836115b2565b91507f45524332303a207472616e7366657220746f20746865207a65726f206164647260008301527f65737300000000000000000000000000000000000000000000000000000000006020830152604082019050919050565b600061113b6022836115b2565b91507f45524332303a20617070726f766520746f20746865207a65726f20616464726560008301527f73730000000000000000000000000000000000000000000000000000000000006020830152604082019050919050565b60006111a16014836115b2565b91507f64732d6d6174682d6d756c2d6f766572666c6f770000000000000000000000006000830152602082019050919050565b60006111e16026836115b2565b91507f45524332303a207472616e7366657220616d6f756e742065786365656473206260008301527f616c616e636500000000000000000000000000000000000000000000000000006020830152604082019050919050565b60006112476028836115b2565b91507f45524332303a207472616e7366657220616d6f756e742065786365656473206160008301527f6c6c6f77616e63650000000000000000000000000000000000000000000000006020830152604082019050919050565b60006112ad6025836115b2565b91507f45524332303a207472616e736665722066726f6d20746865207a65726f20616460008301527f64726573730000000000000000000000000000000000000000000000000000006020830152604082019050919050565b60006113136024836115b2565b91507f45524332303a20617070726f76652066726f6d20746865207a65726f2061646460008301527f72657373000000000000000000000000000000000000000000000000000000006020830152604082019050919050565b60006113796025836115b2565b91507f45524332303a2064656372656173656420616c6c6f77616e63652062656c6f7760008301527f207a65726f0000000000000000000000000000000000000000000000000000006020830152604082019050919050565b6113db816116e2565b82525050565b6113ea816116ec565b82525050565b60006020820190506114056000830184611071565b92915050565b60006040820190506114206000830185611071565b61142d60208301846113d2565b9392505050565b60006020820190506114496000830184611080565b92915050565b60006020820190508181036000830152611469818461108f565b905092915050565b6000602082019050818103600083015261148a816110c8565b9050919050565b600060208201905081810360008301526114aa8161112e565b9050919050565b600060208201905081810360008301526114ca81611194565b9050919050565b600060208201905081810360008301526114ea816111d4565b9050919050565b6000602082019050818103600083015261150a8161123a565b9050919050565b6000602082019050818103600083015261152a816112a0565b9050919050565b6000602082019050818103600083015261154a81611306565b9050919050565b6000602082019050818103600083015261156a8161136c565b9050919050565b600060208201905061158660008301846113d2565b92915050565b60006020820190506115a160008301846113e1565b92915050565b600081519050919050565b600082825260208201905092915050565b60006115ce826116e2565b91506115d9836116e2565b9250827fffffffffffffffffffffffffffffffffffffffffffffffffffffffffffffffff0382111561160e5761160d61175e565b5b828201905092915050565b6000611624826116e2565b915061162f836116e2565b92508261163f5761163e61178d565b5b828204905092915050565b6000611655826116e2565b9150611660836116e2565b9250817fffffffffffffffffffffffffffffffffffffffffffffffffffffffffffffffff04831182151516156116995761169861175e565b5b828202905092915050565b60006116af826116c2565b9050919050565b60008115159050919050565b600073ffffffffffffffffffffffffffffffffffffffff82169050919050565b6000819050919050565b600060ff82169050919050565b60005b838110156117175780820151818401526020810190506116fc565b83811115611726576000848401525b50505050565b6000600282049050600182168061174457607f821691505b60208210811415611758576117576117bc565b5b50919050565b7f4e487b7100000000000000000000000000000000000000000000000000000000600052601160045260246000fd5b7f4e487b7100000000000000000000000000000000000000000000000000000000600052601260045260246000fd5b7f4e487b7100000000000000000000000000000000000000000000000000000000600052602260045260246000fd5b6000601f19601f8301169050919050565b611805816116a4565b811461181057600080fd5b50565b61181c816116b6565b811461182757600080fd5b50565b611833816116e2565b811461183e57600080fd5b5056fea26469706673582212200f24d33831792b77e802e39dd0ac6d507c9e2336fda39550718af4c6dc52291464736f6c63430008000033",
  "immutableReferences": {},
  "source": "// SPDX-License-Identifier: MIT\npragma solidity ^0.8.0;\n\nimport \"@openzeppelin/contracts/token/ERC20/ERC20.sol\";\n\ncontract TokenABC is ERC20 {\n    uint256 public tokenPrice;\n    uint256 public tokensSold;\n\n    constructor(uint256 initialSupply, uint256 _tokenPrice)\n        ERC20(\"TokenABC\", \"ABC\")\n    {\n        tokenPrice = _tokenPrice;\n        _mint(address(this), initialSupply * 10**decimals());\n    }\n\n    function mul(uint256 x, uint256 y) internal pure returns (uint256 z) {\n        require(y == 0 || (z = x * y) / y == x, \"ds-math-mul-overflow\");\n    }\n\n    function buyTokens(uint256 numberOfTokens) external payable {\n        // keep track of number of tokens sold\n        // require that a contract have enough tokens\n        // require tha value sent is equal to token price\n        // trigger sell event\n        require(msg.value >= mul(numberOfTokens, tokenPrice));\n        require(this.balanceOf(address(this)) >= numberOfTokens);\n        require(this.transfer(msg.sender, numberOfTokens));\n\n        tokensSold += numberOfTokens;\n    }\n}\n",
  "sourcePath": "/home/ezio/Desktop/Dapps/Interview/interviewTest/contracts/TokenABC.sol",
  "compiler": {
    "name": "solc",
    "version": "0.8.0+commit.c7dfd78e.Emscripten.clang"
  },
  "schemaVersion": "3.4.7",
  "updatedAt": "2022-07-14T14:40:47.598Z",
  "networkType": "ethereum",
  "devdoc": {
    "kind": "dev",
    "methods": {
      "allowance(address,address)": {
        "details": "See {IERC20-allowance}."
      },
      "approve(address,uint256)": {
        "details": "See {IERC20-approve}. Requirements: - `spender` cannot be the zero address."
      },
      "balanceOf(address)": {
        "details": "See {IERC20-balanceOf}."
      },
      "decimals()": {
        "details": "Returns the number of decimals used to get its user representation. For example, if `decimals` equals `2`, a balance of `505` tokens should be displayed to a user as `5.05` (`505 / 10 ** 2`). Tokens usually opt for a value of 18, imitating the relationship between Ether and Wei. This is the value {ERC20} uses, unless this function is overridden; NOTE: This information is only used for _display_ purposes: it in no way affects any of the arithmetic of the contract, including {IERC20-balanceOf} and {IERC20-transfer}."
      },
      "decreaseAllowance(address,uint256)": {
        "details": "Atomically decreases the allowance granted to `spender` by the caller. This is an alternative to {approve} that can be used as a mitigation for problems described in {IERC20-approve}. Emits an {Approval} event indicating the updated allowance. Requirements: - `spender` cannot be the zero address. - `spender` must have allowance for the caller of at least `subtractedValue`."
      },
      "increaseAllowance(address,uint256)": {
        "details": "Atomically increases the allowance granted to `spender` by the caller. This is an alternative to {approve} that can be used as a mitigation for problems described in {IERC20-approve}. Emits an {Approval} event indicating the updated allowance. Requirements: - `spender` cannot be the zero address."
      },
      "name()": {
        "details": "Returns the name of the token."
      },
      "symbol()": {
        "details": "Returns the symbol of the token, usually a shorter version of the name."
      },
      "totalSupply()": {
        "details": "See {IERC20-totalSupply}."
      },
      "transfer(address,uint256)": {
        "details": "See {IERC20-transfer}. Requirements: - `recipient` cannot be the zero address. - the caller must have a balance of at least `amount`."
      },
      "transferFrom(address,address,uint256)": {
        "details": "See {IERC20-transferFrom}. Emits an {Approval} event indicating the updated allowance. This is not required by the EIP. See the note at the beginning of {ERC20}. Requirements: - `sender` and `recipient` cannot be the zero address. - `sender` must have a balance of at least `amount`. - the caller must have allowance for ``sender``'s tokens of at least `amount`."
      }
    },
    "version": 1
  },
  "userdoc": {
    "kind": "user",
    "methods": {},
    "version": 1
  }
}