{
  "contractName": "TokenSwap",
  "abi": [
    {
      "inputs": [
        {
          "internalType": "address",
          "name": "_tokenABC",
          "type": "address"
        },
        {
          "internalType": "address",
          "name": "_tokenXYZ",
          "type": "address"
        }
      ],
      "stateMutability": "nonpayable",
      "type": "constructor"
    },
    {
      "inputs": [],
      "name": "tokenABC",
      "outputs": [
        {
          "internalType": "contract TokenABC",
          "name": "",
          "type": "address"
        }
      ],
      "stateMutability": "view",
      "type": "function",
      "constant": true
    },
    {
      "inputs": [],
      "name": "tokenXYZ",
      "outputs": [
        {
          "internalType": "contract TokenXYZ",
          "name": "",
          "type": "address"
        }
      ],
      "stateMutability": "view",
      "type": "function",
      "constant": true
    },
    {
      "inputs": [
        {
          "internalType": "uint256",
          "name": "_ratio",
          "type": "uint256"
        }
      ],
      "name": "setRatio",
      "outputs": [],
      "stateMutability": "nonpayable",
      "type": "function"
    },
    {
      "inputs": [],
      "name": "getRatio",
      "outputs": [
        {
          "internalType": "uint256",
          "name": "",
          "type": "uint256"
        }
      ],
      "stateMutability": "view",
      "type": "function",
      "constant": true
    },
    {
      "inputs": [
        {
          "internalType": "uint256",
          "name": "_Fees",
          "type": "uint256"
        }
      ],
      "name": "setFees",
      "outputs": [],
      "stateMutability": "nonpayable",
      "type": "function"
    },
    {
      "inputs": [],
      "name": "getFees",
      "outputs": [
        {
          "internalType": "uint256",
          "name": "",
          "type": "uint256"
        }
      ],
      "stateMutability": "view",
      "type": "function",
      "constant": true
    },
    {
      "inputs": [
        {
          "internalType": "uint256",
          "name": "amountTKA",
          "type": "uint256"
        }
      ],
      "name": "swapTKA",
      "outputs": [
        {
          "internalType": "uint256",
          "name": "",
          "type": "uint256"
        }
      ],
      "stateMutability": "nonpayable",
      "type": "function"
    },
    {
      "inputs": [
        {
          "internalType": "uint256",
          "name": "amountTKX",
          "type": "uint256"
        }
      ],
      "name": "swapTKX",
      "outputs": [
        {
          "internalType": "uint256",
          "name": "",
          "type": "uint256"
        }
      ],
      "stateMutability": "nonpayable",
      "type": "function"
    },
    {
      "inputs": [
        {
          "internalType": "uint256",
          "name": "amount",
          "type": "uint256"
        }
      ],
      "name": "buyTokensABC",
      "outputs": [],
      "stateMutability": "payable",
      "type": "function",
      "payable": true
    },
    {
      "inputs": [
        {
          "internalType": "uint256",
          "name": "amount",
          "type": "uint256"
        }
      ],
      "name": "buyTokensXYZ",
      "outputs": [],
      "stateMutability": "payable",
      "type": "function",
      "payable": true
    }
  ],
  "bytecode": "0x60806040523480156200001157600080fd5b5060405162001a9438038062001a948339818101604052810190620000379190620003f8565b336000806101000a81548173ffffffffffffffffffffffffffffffffffffffff021916908373ffffffffffffffffffffffffffffffffffffffff16021790555081600460006101000a81548173ffffffffffffffffffffffffffffffffffffffff021916908373ffffffffffffffffffffffffffffffffffffffff16021790555080600560006101000a81548173ffffffffffffffffffffffffffffffffffffffff021916908373ffffffffffffffffffffffffffffffffffffffff160217905550600460009054906101000a900473ffffffffffffffffffffffffffffffffffffffff1673ffffffffffffffffffffffffffffffffffffffff1663095ea7b330600460009054906101000a900473ffffffffffffffffffffffffffffffffffffffff1673ffffffffffffffffffffffffffffffffffffffff166318160ddd6040518163ffffffff1660e01b815260040160206040518083038186803b158015620001a157600080fd5b505afa158015620001b6573d6000803e3d6000fd5b505050506040513d601f19601f82011682018060405250810190620001dc919062000465565b6040518363ffffffff1660e01b8152600401620001fb929190620004b3565b602060405180830381600087803b1580156200021657600080fd5b505af11580156200022b573d6000803e3d6000fd5b505050506040513d601f19601f8201168201806040525081019062000251919062000439565b50600560009054906101000a900473ffffffffffffffffffffffffffffffffffffffff1673ffffffffffffffffffffffffffffffffffffffff1663095ea7b330600460009054906101000a900473ffffffffffffffffffffffffffffffffffffffff1673ffffffffffffffffffffffffffffffffffffffff166318160ddd6040518163ffffffff1660e01b815260040160206040518083038186803b158015620002fa57600080fd5b505afa1580156200030f573d6000803e3d6000fd5b505050506040513d601f19601f8201168201806040525081019062000335919062000465565b6040518363ffffffff1660e01b815260040162000354929190620004b3565b602060405180830381600087803b1580156200036f57600080fd5b505af115801562000384573d6000803e3d6000fd5b505050506040513d601f19601f82011682018060405250810190620003aa919062000439565b50505062000578565b600081519050620003c4816200052a565b92915050565b600081519050620003db8162000544565b92915050565b600081519050620003f2816200055e565b92915050565b600080604083850312156200040c57600080fd5b60006200041c85828601620003b3565b92505060206200042f85828601620003b3565b9150509250929050565b6000602082840312156200044c57600080fd5b60006200045c84828501620003ca565b91505092915050565b6000602082840312156200047857600080fd5b60006200048884828501620003e1565b91505092915050565b6200049c81620004e0565b82525050565b620004ad8162000520565b82525050565b6000604082019050620004ca600083018562000491565b620004d96020830184620004a2565b9392505050565b6000620004ed8262000500565b9050919050565b60008115159050919050565b600073ffffffffffffffffffffffffffffffffffffffff82169050919050565b6000819050919050565b6200053581620004e0565b81146200054157600080fd5b50565b6200054f81620004f4565b81146200055b57600080fd5b50565b620005698162000520565b81146200057557600080fd5b50565b61150c80620005886000396000f3fe6080604052600436106100915760003560e01c8063ad20f47011610059578063ad20f4701461018f578063b2237ba3146101ab578063db8d55f1146101d4578063ec1ebd7a146101ff578063f62b77d71461022a57610091565b80633d18678e146100965780635f70662d146100bf5780637226d2c3146100ea57806394e6d1a214610127578063aaea238214610164575b600080fd5b3480156100a257600080fd5b506100bd60048036038101906100b89190610e6c565b610246565b005b3480156100cb57600080fd5b506100d461025c565b6040516100e191906111f4565b60405180910390f35b3480156100f657600080fd5b50610111600480360381019061010c9190610e6c565b610282565b60405161011e91906112cf565b60405180910390f35b34801561013357600080fd5b5061014e60048036038101906101499190610e6c565b610737565b60405161015b91906112cf565b60405180910390f35b34801561017057600080fd5b50610179610bf3565b60405161018691906111d9565b60405180910390f35b6101a960048036038101906101a49190610e6c565b610c19565b005b3480156101b757600080fd5b506101d260048036038101906101cd9190610e6c565b610cb6565b005b3480156101e057600080fd5b506101e9610ccc565b6040516101f691906112cf565b60405180910390f35b34801561020b57600080fd5b50610214610ce3565b60405161022191906112cf565b60405180910390f35b610244600480360381019061023f9190610e6c565b610cfa565b005b60008054906101000a9050508060038190555050565b600560009054906101000a900473ffffffffffffffffffffffffffffffffffffffff1681565b60008082116102c6576040517f08c379a00000000000000000000000000000000000000000000000000000000081526004016102bd9061128f565b60405180910390fd5b81600460009054906101000a900473ffffffffffffffffffffffffffffffffffffffff1673ffffffffffffffffffffffffffffffffffffffff166370a08231336040518263ffffffff1660e01b8152600401610322919061115e565b60206040518083038186803b15801561033a57600080fd5b505afa15801561034e573d6000803e3d6000fd5b505050506040513d601f19601f820116820180604052508101906103729190610e95565b10156103b3576040517f08c379a00000000000000000000000000000000000000000000000000000000081526004016103aa9061126f565b60405180910390fd5b60006103c183600154610d97565b9050600060646103d383600354610d97565b6103dd91906112fb565b826103e89190611386565b90506000811161042d576040517f08c379a00000000000000000000000000000000000000000000000000000000081526004016104249061122f565b60405180910390fd5b80600560009054906101000a900473ffffffffffffffffffffffffffffffffffffffff1673ffffffffffffffffffffffffffffffffffffffff166370a08231306040518263ffffffff1660e01b8152600401610489919061115e565b60206040518083038186803b1580156104a157600080fd5b505afa1580156104b5573d6000803e3d6000fd5b505050506040513d601f19601f820116820180604052508101906104d99190610e95565b11610519576040517f08c379a00000000000000000000000000000000000000000000000000000000081526004016105109061124f565b60405180910390fd5b600460009054906101000a900473ffffffffffffffffffffffffffffffffffffffff1673ffffffffffffffffffffffffffffffffffffffff166323b872dd3330876040518463ffffffff1660e01b815260040161057893929190611179565b602060405180830381600087803b15801561059257600080fd5b505af11580156105a6573d6000803e3d6000fd5b505050506040513d601f19601f820116820180604052508101906105ca9190610e43565b50600560009054906101000a900473ffffffffffffffffffffffffffffffffffffffff1673ffffffffffffffffffffffffffffffffffffffff1663095ea7b333836040518363ffffffff1660e01b81526004016106289291906111b0565b602060405180830381600087803b15801561064257600080fd5b505af1158015610656573d6000803e3d6000fd5b505050506040513d601f19601f8201168201806040525081019061067a9190610e43565b50600560009054906101000a900473ffffffffffffffffffffffffffffffffffffffff1673ffffffffffffffffffffffffffffffffffffffff166323b872dd3033846040518463ffffffff1660e01b81526004016106da93929190611179565b602060405180830381600087803b1580156106f457600080fd5b505af1158015610708573d6000803e3d6000fd5b505050506040513d601f19601f8201168201806040525081019061072c9190610e43565b508092505050919050565b600060015482101561077e576040517f08c379a0000000000000000000000000000000000000000000000000000000008152600401610775906112af565b60405180910390fd5b81600560009054906101000a900473ffffffffffffffffffffffffffffffffffffffff1673ffffffffffffffffffffffffffffffffffffffff166370a08231336040518263ffffffff1660e01b81526004016107da919061115e565b60206040518083038186803b1580156107f257600080fd5b505afa158015610806573d6000803e3d6000fd5b505050506040513d601f19601f8201168201806040525081019061082a9190610e95565b101561086b576040517f08c379a00000000000000000000000000000000000000000000000000000000081526004016108629061126f565b60405180910390fd5b60006001548361087b91906112fb565b9050600060646003548361088f919061132c565b61089991906112fb565b826108a49190611386565b9050600081116108e9576040517f08c379a00000000000000000000000000000000000000000000000000000000081526004016108e09061122f565b60405180910390fd5b80600460009054906101000a900473ffffffffffffffffffffffffffffffffffffffff1673ffffffffffffffffffffffffffffffffffffffff166370a08231306040518263ffffffff1660e01b8152600401610945919061115e565b60206040518083038186803b15801561095d57600080fd5b505afa158015610971573d6000803e3d6000fd5b505050506040513d601f19601f820116820180604052508101906109959190610e95565b116109d5576040517f08c379a00000000000000000000000000000000000000000000000000000000081526004016109cc9061124f565b60405180910390fd5b600560009054906101000a900473ffffffffffffffffffffffffffffffffffffffff1673ffffffffffffffffffffffffffffffffffffffff166323b872dd3330876040518463ffffffff1660e01b8152600401610a3493929190611179565b602060405180830381600087803b158015610a4e57600080fd5b505af1158015610a62573d6000803e3d6000fd5b505050506040513d601f19601f82011682018060405250810190610a869190610e43565b50600460009054906101000a900473ffffffffffffffffffffffffffffffffffffffff1673ffffffffffffffffffffffffffffffffffffffff1663095ea7b333836040518363ffffffff1660e01b8152600401610ae49291906111b0565b602060405180830381600087803b158015610afe57600080fd5b505af1158015610b12573d6000803e3d6000fd5b505050506040513d601f19601f82011682018060405250810190610b369190610e43565b50600460009054906101000a900473ffffffffffffffffffffffffffffffffffffffff1673ffffffffffffffffffffffffffffffffffffffff166323b872dd3033846040518463ffffffff1660e01b8152600401610b9693929190611179565b602060405180830381600087803b158015610bb057600080fd5b505af1158015610bc4573d6000803e3d6000fd5b505050506040513d601f19601f82011682018060405250810190610be89190610e43565b508092505050919050565b600460009054906101000a900473ffffffffffffffffffffffffffffffffffffffff1681565b60008054906101000a905050600460009054906101000a900473ffffffffffffffffffffffffffffffffffffffff1673ffffffffffffffffffffffffffffffffffffffff16633610724e34836040518363ffffffff1660e01b8152600401610c8191906112cf565b6000604051808303818588803b158015610c9a57600080fd5b505af1158015610cae573d6000803e3d6000fd5b505050505050565b60008054906101000a9050508060018190555050565b60008060009054906101000a905050600354905090565b60008060009054906101000a905050600154905090565b60008054906101000a905050600560009054906101000a900473ffffffffffffffffffffffffffffffffffffffff1673ffffffffffffffffffffffffffffffffffffffff16633610724e34836040518363ffffffff1660e01b8152600401610d6291906112cf565b6000604051808303818588803b158015610d7b57600080fd5b505af1158015610d8f573d6000803e3d6000fd5b505050505050565b600080821480610dbf575082828385610db0919061132c565b925082610dbd91906112fb565b145b610dfe576040517f08c379a0000000000000000000000000000000000000000000000000000000008152600401610df59061120f565b60405180910390fd5b92915050565b600081519050610e13816114a8565b92915050565b600081359050610e28816114bf565b92915050565b600081519050610e3d816114bf565b92915050565b600060208284031215610e5557600080fd5b6000610e6384828501610e04565b91505092915050565b600060208284031215610e7e57600080fd5b6000610e8c84828501610e19565b91505092915050565b600060208284031215610ea757600080fd5b6000610eb584828501610e2e565b91505092915050565b610ec7816113ba565b82525050565b610ed681611402565b82525050565b610ee581611426565b82525050565b6000610ef86014836112ea565b91507f64732d6d6174682d6d756c2d6f766572666c6f770000000000000000000000006000830152602082019050919050565b6000610f386029836112ea565b91507f65786368616e676520416d6f756e74206d75737420626520677265617465722060008301527f7468656e207a65726f00000000000000000000000000000000000000000000006020830152604082019050919050565b6000610f9e604c836112ea565b91507f63757272656e746c79207468652065786368616e676520646f65736e7420686160008301527f766520656e6f7567682058595a20546f6b656e732c20706c656173652072657460208301527f7279206c61746572203a3d2800000000000000000000000000000000000000006040830152606082019050919050565b600061102a6021836112ea565b91507f73656e64657220646f65736e2774206861766520656e6f75676820546f6b656e60008301527f73000000000000000000000000000000000000000000000000000000000000006020830152604082019050919050565b60006110906023836112ea565b91507f616d6f756e74544b41206d7573742062652067726561746572207468656e207a60008301527f65726f00000000000000000000000000000000000000000000000000000000006020830152604082019050919050565b60006110f66024836112ea565b91507f616d6f756e74544b58206d7573742062652067726561746572207468656e207260008301527f6174696f000000000000000000000000000000000000000000000000000000006020830152604082019050919050565b611158816113f8565b82525050565b60006020820190506111736000830184610ebe565b92915050565b600060608201905061118e6000830186610ebe565b61119b6020830185610ebe565b6111a8604083018461114f565b949350505050565b60006040820190506111c56000830185610ebe565b6111d2602083018461114f565b9392505050565b60006020820190506111ee6000830184610ecd565b92915050565b60006020820190506112096000830184610edc565b92915050565b6000602082019050818103600083015261122881610eeb565b9050919050565b6000602082019050818103600083015261124881610f2b565b9050919050565b6000602082019050818103600083015261126881610f91565b9050919050565b600060208201905081810360008301526112888161101d565b9050919050565b600060208201905081810360008301526112a881611083565b9050919050565b600060208201905081810360008301526112c8816110e9565b9050919050565b60006020820190506112e4600083018461114f565b92915050565b600082825260208201905092915050565b6000611306826113f8565b9150611311836113f8565b92508261132157611320611479565b5b828204905092915050565b6000611337826113f8565b9150611342836113f8565b9250817fffffffffffffffffffffffffffffffffffffffffffffffffffffffffffffffff048311821515161561137b5761137a61144a565b5b828202905092915050565b6000611391826113f8565b915061139c836113f8565b9250828210156113af576113ae61144a565b5b828203905092915050565b60006113c5826113d8565b9050919050565b60008115159050919050565b600073ffffffffffffffffffffffffffffffffffffffff82169050919050565b6000819050919050565b600061140d82611414565b9050919050565b600061141f826113d8565b9050919050565b600061143182611438565b9050919050565b6000611443826113d8565b9050919050565b7f4e487b7100000000000000000000000000000000000000000000000000000000600052601160045260246000fd5b7f4e487b7100000000000000000000000000000000000000000000000000000000600052601260045260246000fd5b6114b1816113cc565b81146114bc57600080fd5b50565b6114c8816113f8565b81146114d357600080fd5b5056fea26469706673582212205a19925919869a5863f7a84d3a57d95001a82f94211994f36c06fabde9ca5bcf64736f6c63430008000033",
  "immutableReferences": {},
  "source": "// SPDX-License-Identifier: MIT\npragma solidity ^0.8.0;\n\nimport \"@openzeppelin/contracts/token/ERC20/ERC20.sol\";\nimport \"./TokenABC.sol\";\nimport \"./TokenXYZ.sol\";\n\n// this contract should be deployed after the deployment of the two contracts TokenABC and TokenXYZ\n// as instrcuted in the 2_deploy_contracts file\ncontract TokenSwap {\n    address payable admin;\n    //ratioAX is the percentage of how much TokenA is worth of TokenX\n    uint256 ratioAX;\n    bool AcheaperthenX;\n    uint256 fees;\n    TokenABC public tokenABC;\n    TokenXYZ public tokenXYZ;\n\n    constructor(address _tokenABC, address _tokenXYZ) {\n        admin = payable(msg.sender);\n        tokenABC = TokenABC(_tokenABC);\n        tokenXYZ = TokenXYZ(_tokenXYZ);\n        //due to openzeppelin implementation, transferFrom function implementation expects _msgSender() to be the beneficiary from the caller\n        // but in this use cae we are using this contract to transfer so its always checking the allowance of SELF\n        tokenABC.approve(address(this), tokenABC.totalSupply());\n        tokenXYZ.approve(address(this), tokenABC.totalSupply());\n    }\n\n    modifier onlyAdmin() {\n        payable(msg.sender) == admin;\n        _;\n    }\n\n    function setRatio(uint256 _ratio) public onlyAdmin {\n        ratioAX = _ratio;\n    }\n\n    function getRatio() public view onlyAdmin returns (uint256) {\n        return ratioAX;\n    }\n\n    function setFees(uint256 _Fees) public onlyAdmin {\n        fees = _Fees;\n    }\n\n    function getFees() public view onlyAdmin returns (uint256) {\n        return fees;\n    }\n\n    // accepts amount of TokenABC and exchenge it for TokenXYZ, vice versa with function swapTKX\n    // transfer tokensABC from sender to smart contract after the user has approved the smart contract to\n    // withdraw amount TKA from his account, this is a better solution since it is more open and gives the\n    // control to the user over what calls are transfered instead of inspecting the smart contract\n    // approve the caller to transfer one time from the smart contract address to his address\n    // transfer the exchanged TokenXYZ to the sender\n    function swapTKA(uint256 amountTKA) public returns (uint256) {\n        //check if amount given is not 0\n        // check if current contract has the necessary amout of Tokens to exchange\n        require(amountTKA > 0, \"amountTKA must be greater then zero\");\n        require(\n            tokenABC.balanceOf(msg.sender) >= amountTKA,\n            \"sender doesn't have enough Tokens\"\n        );\n\n        uint256 exchangeA = uint256(mul(amountTKA, ratioAX));\n        uint256 exchangeAmount = exchangeA -\n            uint256((mul(exchangeA, fees)) / 100);\n        require(\n            exchangeAmount > 0,\n            \"exchange Amount must be greater then zero\"\n        );\n\n        require(\n            tokenXYZ.balanceOf(address(this)) > exchangeAmount,\n            \"currently the exchange doesnt have enough XYZ Tokens, please retry later :=(\"\n        );\n\n        tokenABC.transferFrom(msg.sender, address(this), amountTKA);\n        tokenXYZ.approve(address(msg.sender), exchangeAmount);\n        tokenXYZ.transferFrom(\n            address(this),\n            address(msg.sender),\n            exchangeAmount\n        );\n        return exchangeAmount;\n    }\n\n    function swapTKX(uint256 amountTKX) public returns (uint256) {\n        //check if amount given is not 0\n        // check if current contract has the necessary amout of Tokens to exchange and the sender\n        require(amountTKX >= ratioAX, \"amountTKX must be greater then ratio\");\n        require(\n            tokenXYZ.balanceOf(msg.sender) >= amountTKX,\n            \"sender doesn't have enough Tokens\"\n        );\n\n        uint256 exchangeA = amountTKX / ratioAX;\n        uint256 exchangeAmount = exchangeA - ((exchangeA * fees) / 100);\n\n        require(\n            exchangeAmount > 0,\n            \"exchange Amount must be greater then zero\"\n        );\n\n        require(\n            tokenABC.balanceOf(address(this)) > exchangeAmount,\n            \"currently the exchange doesnt have enough XYZ Tokens, please retry later :=(\"\n        );\n        tokenXYZ.transferFrom(msg.sender, address(this), amountTKX);\n        tokenABC.approve(address(msg.sender), exchangeAmount);\n        tokenABC.transferFrom(\n            address(this),\n            address(msg.sender),\n            exchangeAmount\n        );\n        return exchangeAmount;\n    }\n\n    //leting the Admin of the TokenSwap to buyTokens manually is preferable and better then letting the contract\n    // buy automatically tokens since contracts are immutable and in case the value of some tokens beomes\n    // worthless its better to not to do any exchange at all\n    function buyTokensABC(uint256 amount) public payable onlyAdmin {\n        tokenABC.buyTokens{value: msg.value}(amount);\n    }\n\n    function buyTokensXYZ(uint256 amount) public payable onlyAdmin {\n        tokenXYZ.buyTokens{value: msg.value}(amount);\n    }\n\n    function mul(uint256 x, uint256 y) internal pure returns (uint256 z) {\n        require(y == 0 || (z = x * y) / y == x, \"ds-math-mul-overflow\");\n    }\n}\n",
  "sourcePath": "S:\\test\\TokenSwap\\contracts\\TokenSwap.sol",
  "compiler": {
    "name": "solc",
    "version": "0.8.0+commit.c7dfd78e.Emscripten.clang"
  },
  "schemaVersion": "3.4.3",
  "updatedAt": "2021-11-08T14:36:53.089Z",
  "networkType": "ethereum",
  "devdoc": {
    "kind": "dev",
    "methods": {},
    "version": 1
  },
  "userdoc": {
    "kind": "user",
    "methods": {},
    "version": 1
  }
}